{
  "_format": "hh-sol-artifact-1",
  "contractName": "Election",
  "sourceName": "contracts/eVote.sol",
  "abi": [
    {
      "inputs": [
        {
          "internalType": "address[]",
          "name": "_moderators",
          "type": "address[]"
        }
      ],
      "stateMutability": "nonpayable",
      "type": "constructor"
    },
    {
      "inputs": [
        {
          "internalType": "uint256",
          "name": "",
          "type": "uint256"
        }
      ],
      "name": "Moderators",
      "outputs": [
        {
          "internalType": "address",
          "name": "",
          "type": "address"
        }
      ],
      "stateMutability": "view",
      "type": "function"
    },
    {
      "inputs": [
        {
          "internalType": "uint256",
          "name": "",
          "type": "uint256"
        }
      ],
      "name": "Parties",
      "outputs": [
        {
          "internalType": "string",
          "name": "name",
          "type": "string"
        },
        {
          "internalType": "uint256",
          "name": "voteCount",
          "type": "uint256"
        },
        {
          "internalType": "bool",
          "name": "belowThreshold",
          "type": "bool"
        }
      ],
      "stateMutability": "view",
      "type": "function"
    },
    {
      "inputs": [
        {
          "internalType": "address",
          "name": "",
          "type": "address"
        }
      ],
      "name": "Voters",
      "outputs": [
        {
          "internalType": "bool",
          "name": "",
          "type": "bool"
        }
      ],
      "stateMutability": "view",
      "type": "function"
    },
    {
      "inputs": [
        {
          "internalType": "uint256",
          "name": "",
          "type": "uint256"
        }
      ],
      "name": "Votes",
      "outputs": [
        {
          "internalType": "uint256",
          "name": "voteID",
          "type": "uint256"
        },
        {
          "internalType": "uint256",
          "name": "altVoteID",
          "type": "uint256"
        }
      ],
      "stateMutability": "view",
      "type": "function"
    },
    {
      "inputs": [
        {
          "internalType": "string",
          "name": "_name",
          "type": "string"
        }
      ],
      "name": "addParty",
      "outputs": [],
      "stateMutability": "nonpayable",
      "type": "function"
    },
    {
      "inputs": [],
      "name": "callFirstStage",
      "outputs": [],
      "stateMutability": "nonpayable",
      "type": "function"
    },
    {
      "inputs": [
        {
          "internalType": "uint256",
          "name": "_threshold",
          "type": "uint256"
        }
      ],
      "name": "callSecondStage",
      "outputs": [],
      "stateMutability": "nonpayable",
      "type": "function"
    },
    {
      "inputs": [
        {
          "internalType": "string",
          "name": "_description",
          "type": "string"
        },
        {
          "internalType": "uint256",
          "name": "_startTime",
          "type": "uint256"
        },
        {
          "internalType": "uint256",
          "name": "_endTime",
          "type": "uint256"
        }
      ],
      "name": "changeParameters",
      "outputs": [],
      "stateMutability": "nonpayable",
      "type": "function"
    },
    {
      "inputs": [],
      "name": "description",
      "outputs": [
        {
          "internalType": "string",
          "name": "",
          "type": "string"
        }
      ],
      "stateMutability": "view",
      "type": "function"
    },
    {
      "inputs": [],
      "name": "endTime",
      "outputs": [
        {
          "internalType": "uint256",
          "name": "",
          "type": "uint256"
        }
      ],
      "stateMutability": "view",
      "type": "function"
    },
    {
      "inputs": [],
      "name": "firstStageLock",
      "outputs": [
        {
          "internalType": "bool",
          "name": "",
          "type": "bool"
        }
      ],
      "stateMutability": "view",
      "type": "function"
    },
    {
      "inputs": [],
      "name": "getCurrentTime",
      "outputs": [
        {
          "internalType": "uint256",
          "name": "",
          "type": "uint256"
        }
      ],
      "stateMutability": "view",
      "type": "function"
    },
    {
      "inputs": [],
      "name": "getModeratorsList",
      "outputs": [
        {
          "internalType": "address[]",
          "name": "",
          "type": "address[]"
        }
      ],
      "stateMutability": "view",
      "type": "function"
    },
    {
      "inputs": [],
      "name": "getPartiesList",
      "outputs": [
        {
          "components": [
            {
              "internalType": "string",
              "name": "name",
              "type": "string"
            },
            {
              "internalType": "uint256",
              "name": "voteCount",
              "type": "uint256"
            },
            {
              "internalType": "bool",
              "name": "belowThreshold",
              "type": "bool"
            }
          ],
          "internalType": "struct Election.Party[]",
          "name": "",
          "type": "tuple[]"
        }
      ],
      "stateMutability": "view",
      "type": "function"
    },
    {
      "inputs": [],
      "name": "getVotesList",
      "outputs": [
        {
          "components": [
            {
              "internalType": "uint256",
              "name": "voteID",
              "type": "uint256"
            },
            {
              "internalType": "uint256",
              "name": "altVoteID",
              "type": "uint256"
            }
          ],
          "internalType": "struct Election.Vote[]",
          "name": "",
          "type": "tuple[]"
        }
      ],
      "stateMutability": "view",
      "type": "function"
    },
    {
      "inputs": [],
      "name": "secondStageLock",
      "outputs": [
        {
          "internalType": "bool",
          "name": "",
          "type": "bool"
        }
      ],
      "stateMutability": "view",
      "type": "function"
    },
    {
      "inputs": [],
      "name": "startTime",
      "outputs": [
        {
          "internalType": "uint256",
          "name": "",
          "type": "uint256"
        }
      ],
      "stateMutability": "view",
      "type": "function"
    },
    {
      "inputs": [
        {
          "internalType": "uint256",
          "name": "_partyID",
          "type": "uint256"
        },
        {
          "internalType": "uint256",
          "name": "_altPartyID",
          "type": "uint256"
        }
      ],
      "name": "vote",
      "outputs": [],
      "stateMutability": "nonpayable",
      "type": "function"
    }
  ],
  "bytecode": "0x60806040523480156200001157600080fd5b50604051620028bc380380620028bc8339818101604052810190620000379190620003b6565b80600390805190602001906200004f9291906200011a565b50600060405180606001604052806040518060400160405280600b81526020017f426c616e6b20566f7465730000000000000000000000000000000000000000008152508152602001600081526020016000151581525090806001815401808255809150506001900390600052602060002090600302016000909190919091506000820151816000019081620000e6919062000652565b506020820151816001015560408201518160020160006101000a81548160ff02191690831515021790555050505062000739565b82805482825590600052602060002090810192821562000196579160200282015b82811115620001955782518260006101000a81548173ffffffffffffffffffffffffffffffffffffffff021916908373ffffffffffffffffffffffffffffffffffffffff160217905550916020019190600101906200013b565b5b509050620001a59190620001a9565b5090565b5b80821115620001c4576000816000905550600101620001aa565b5090565b6000604051905090565b600080fd5b600080fd5b600080fd5b6000601f19601f8301169050919050565b7f4e487b7100000000000000000000000000000000000000000000000000000000600052604160045260246000fd5b6200022c82620001e1565b810181811067ffffffffffffffff821117156200024e576200024d620001f2565b5b80604052505050565b600062000263620001c8565b905062000271828262000221565b919050565b600067ffffffffffffffff821115620002945762000293620001f2565b5b602082029050602081019050919050565b600080fd5b600073ffffffffffffffffffffffffffffffffffffffff82169050919050565b6000620002d782620002aa565b9050919050565b620002e981620002ca565b8114620002f557600080fd5b50565b6000815190506200030981620002de565b92915050565b600062000326620003208462000276565b62000257565b905080838252602082019050602084028301858111156200034c576200034b620002a5565b5b835b81811015620003795780620003648882620002f8565b8452602084019350506020810190506200034e565b5050509392505050565b600082601f8301126200039b576200039a620001dc565b5b8151620003ad8482602086016200030f565b91505092915050565b600060208284031215620003cf57620003ce620001d2565b5b600082015167ffffffffffffffff811115620003f057620003ef620001d7565b5b620003fe8482850162000383565b91505092915050565b600081519050919050565b7f4e487b7100000000000000000000000000000000000000000000000000000000600052602260045260246000fd5b600060028204905060018216806200045a57607f821691505b60208210810362000470576200046f62000412565b5b50919050565b60008190508160005260206000209050919050565b60006020601f8301049050919050565b600082821b905092915050565b600060088302620004da7fffffffffffffffffffffffffffffffffffffffffffffffffffffffffffffffff826200049b565b620004e686836200049b565b95508019841693508086168417925050509392505050565b6000819050919050565b6000819050919050565b6000620005336200052d6200052784620004fe565b62000508565b620004fe565b9050919050565b6000819050919050565b6200054f8362000512565b620005676200055e826200053a565b848454620004a8565b825550505050565b600090565b6200057e6200056f565b6200058b81848462000544565b505050565b5b81811015620005b357620005a760008262000574565b60018101905062000591565b5050565b601f8211156200060257620005cc8162000476565b620005d7846200048b565b81016020851015620005e7578190505b620005ff620005f6856200048b565b83018262000590565b50505b505050565b600082821c905092915050565b6000620006276000198460080262000607565b1980831691505092915050565b600062000642838362000614565b9150826002028217905092915050565b6200065d8262000407565b67ffffffffffffffff811115620006795762000678620001f2565b5b62000685825462000441565b62000692828285620005b7565b600060209050601f831160018114620006ca5760008415620006b5578287015190505b620006c1858262000634565b86555062000731565b601f198416620006da8662000476565b60005b828110156200070457848901518255600182019150602085019450602081019050620006dd565b8683101562000724578489015162000720601f89168262000614565b8355505b6001600288020188555050505b505050505050565b61217380620007496000396000f3fe608060405234801561001057600080fd5b50600436106101165760003560e01c806372f0b41a116100a2578063ac2987ff11610071578063ac2987ff146102ad578063acbcfebc146102de578063b384abef146102fc578063fd766fa814610318578063fdedaa8a1461033657610116565b806372f0b41a1461022357806378e9792514610241578063907defc51461025f57806392020fb01461027b57610116565b80634b606cf2116100e95780634b606cf21461019357806356d80038146101c35780635df3e271146101df57806360d3860c146101fb5780637284e4161461020557610116565b8063014569591461011b57806329cb924d146101395780633197cbb61461015757806337a811a114610175575b600080fd5b610123610366565b60405161013091906112c1565b60405180910390f35b6101416103f4565b60405161014e91906112fc565b60405180910390f35b61015f6103fc565b60405161016c91906112fc565b60405180910390f35b61017d610402565b60405161018a91906114e3565b60405180910390f35b6101ad60048036038101906101a89190611545565b610518565b6040516101ba9190611581565b60405180910390f35b6101dd60048036038101906101d89190611545565b610557565b005b6101f960048036038101906101f491906116d1565b6108e7565b005b610203610aac565b005b61020d610ba9565b60405161021a9190611764565b60405180910390f35b61022b610c37565b6040516102389190611795565b60405180910390f35b610249610c4a565b60405161025691906112fc565b60405180910390f35b610279600480360381019061027491906117b0565b610c50565b005b61029560048036038101906102909190611545565b610da9565b6040516102a49392919061181f565b60405180910390f35b6102c760048036038101906102c29190611545565b610e78565b6040516102d592919061185d565b60405180910390f35b6102e6610eac565b6040516102f39190611964565b60405180910390f35b61031660048036038101906103119190611986565b610f1f565b005b61032061119e565b60405161032d9190611795565b60405180910390f35b610350600480360381019061034b91906119f2565b6111b1565b60405161035d9190611795565b60405180910390f35b606060038054806020026020016040519081016040528092919081815260200182805480156103ea57602002820191906000526020600020905b8160009054906101000a900473ffffffffffffffffffffffffffffffffffffffff1673ffffffffffffffffffffffffffffffffffffffff16815260200190600101908083116103a0575b5050505050905090565b600042905090565b60065481565b60606000805480602002602001604051908101604052809291908181526020016000905b8282101561050f578382906000526020600020906003020160405180606001604052908160008201805461045990611a4e565b80601f016020809104026020016040519081016040528092919081815260200182805461048590611a4e565b80156104d25780601f106104a7576101008083540402835291602001916104d2565b820191906000526020600020905b8154815290600101906020018083116104b557829003601f168201915b50505050508152602001600182015481526020016002820160009054906101000a900460ff16151515158152505081526020019060010190610426565b50505050905090565b6003818154811061052857600080fd5b906000526020600020016000915054906101000a900473ffffffffffffffffffffffffffffffffffffffff1681565b6000805b6003805490508110156105f5573373ffffffffffffffffffffffffffffffffffffffff166003828154811061059357610592611a7f565b5b9060005260206000200160009054906101000a900473ffffffffffffffffffffffffffffffffffffffff1673ffffffffffffffffffffffffffffffffffffffff16036105e257600191506105f5565b80806105ed90611add565b91505061055b565b5080610636576040517f08c379a000000000000000000000000000000000000000000000000000000000815260040161062d90611b97565b60405180910390fd5b60011515600760009054906101000a900460ff1615151461068c576040517f08c379a000000000000000000000000000000000000000000000000000000000815260040161068390611c29565b60405180910390fd5b60001515600760019054906101000a900460ff161515146106e2576040517f08c379a00000000000000000000000000000000000000000000000000000000081526004016106d990611cbb565b60405180910390fd5b6001600760016101000a81548160ff0219169083151502179055506000600190505b60008054905081101561079057826000828154811061072657610725611a7f565b5b906000526020600020906003020160010154101561077d5760016000828154811061075457610753611a7f565b5b906000526020600020906003020160020160006101000a81548160ff0219169083151502179055505b808061078890611add565b915050610704565b5060005b6002805490508110156108e257600115156000600283815481106107bb576107ba611a7f565b5b906000526020600020906002020160000154815481106107de576107dd611a7f565b5b906000526020600020906003020160020160009054906101000a900460ff16151514801561086757506000151560006002838154811061082157610820611a7f565b5b9060005260206000209060020201600101548154811061084457610843611a7f565b5b906000526020600020906003020160020160009054906101000a900460ff161515145b156108cf57600160006002838154811061088457610883611a7f565b5b906000526020600020906002020160010154815481106108a7576108a6611a7f565b5b906000526020600020906003020160010160008282546108c79190611cdb565b925050819055505b80806108da90611add565b915050610794565b505050565b6000805b600380549050811015610985573373ffffffffffffffffffffffffffffffffffffffff166003828154811061092357610922611a7f565b5b9060005260206000200160009054906101000a900473ffffffffffffffffffffffffffffffffffffffff1673ffffffffffffffffffffffffffffffffffffffff16036109725760019150610985565b808061097d90611add565b9150506108eb565b50806109c6576040517f08c379a00000000000000000000000000000000000000000000000000000000081526004016109bd90611b97565b60405180910390fd5b60001515600760009054906101000a900460ff16151514610a1c576040517f08c379a0000000000000000000000000000000000000000000000000000000008152600401610a1390611d5b565b60405180910390fd5b60006040518060600160405280848152602001600081526020016000151581525090806001815401808255809150506001900390600052602060002090600302016000909190919091506000820151816000019081610a7b9190611f27565b506020820151816001015560408201518160020160006101000a81548160ff02191690831515021790555050505050565b6000805b600380549050811015610b4a573373ffffffffffffffffffffffffffffffffffffffff1660038281548110610ae857610ae7611a7f565b5b9060005260206000200160009054906101000a900473ffffffffffffffffffffffffffffffffffffffff1673ffffffffffffffffffffffffffffffffffffffff1603610b375760019150610b4a565b8080610b4290611add565b915050610ab0565b5080610b8b576040517f08c379a0000000000000000000000000000000000000000000000000000000008152600401610b8290611b97565b60405180910390fd5b6001600760006101000a81548160ff02191690831515021790555050565b60048054610bb690611a4e565b80601f0160208091040260200160405190810160405280929190818152602001828054610be290611a4e565b8015610c2f5780601f10610c0457610100808354040283529160200191610c2f565b820191906000526020600020905b815481529060010190602001808311610c1257829003601f168201915b505050505081565b600760009054906101000a900460ff1681565b60055481565b6000805b600380549050811015610cee573373ffffffffffffffffffffffffffffffffffffffff1660038281548110610c8c57610c8b611a7f565b5b9060005260206000200160009054906101000a900473ffffffffffffffffffffffffffffffffffffffff1673ffffffffffffffffffffffffffffffffffffffff1603610cdb5760019150610cee565b8080610ce690611add565b915050610c54565b5080610d2f576040517f08c379a0000000000000000000000000000000000000000000000000000000008152600401610d2690611b97565b60405180910390fd5b60001515600760009054906101000a900460ff16151514610d85576040517f08c379a0000000000000000000000000000000000000000000000000000000008152600401610d7c90611d5b565b60405180910390fd5b8360049081610d949190611f27565b50826005819055508160068190555050505050565b60008181548110610db957600080fd5b9060005260206000209060030201600091509050806000018054610ddc90611a4e565b80601f0160208091040260200160405190810160405280929190818152602001828054610e0890611a4e565b8015610e555780601f10610e2a57610100808354040283529160200191610e55565b820191906000526020600020905b815481529060010190602001808311610e3857829003601f168201915b5050505050908060010154908060020160009054906101000a900460ff16905083565b60028181548110610e8857600080fd5b90600052602060002090600202016000915090508060000154908060010154905082565b60606002805480602002602001604051908101604052809291908181526020016000905b82821015610f1657838290600052602060002090600202016040518060400160405290816000820154815260200160018201548152505081526020019060010190610ed0565b50505050905090565b60001515600760009054906101000a900460ff16151514610f75576040517f08c379a0000000000000000000000000000000000000000000000000000000008152600401610f6c90611d5b565b60405180910390fd5b60001515600160003373ffffffffffffffffffffffffffffffffffffffff1673ffffffffffffffffffffffffffffffffffffffff16815260200190815260200160002060009054906101000a900460ff16151514611008576040517f08c379a0000000000000000000000000000000000000000000000000000000008152600401610fff90612045565b60405180910390fd5b4260055410801561101a575042600654115b611059576040517f08c379a0000000000000000000000000000000000000000000000000000000008152600401611050906120b1565b60405180910390fd5b60008054905082108015611071575060008054905081105b6110b0576040517f08c379a00000000000000000000000000000000000000000000000000000000081526004016110a79061211d565b60405180910390fd5b60018060003373ffffffffffffffffffffffffffffffffffffffff1673ffffffffffffffffffffffffffffffffffffffff16815260200190815260200160002060006101000a81548160ff021916908315150217905550600260405180604001604052808481526020018381525090806001815401808255809150506001900390600052602060002090600202016000909190919091506000820151816000015560208201518160010155505060016000838154811061117357611172611a7f565b5b906000526020600020906003020160010160008282546111939190611cdb565b925050819055505050565b600760019054906101000a900460ff1681565b60016020528060005260406000206000915054906101000a900460ff1681565b600081519050919050565b600082825260208201905092915050565b6000819050602082019050919050565b600073ffffffffffffffffffffffffffffffffffffffff82169050919050565b6000611228826111fd565b9050919050565b6112388161121d565b82525050565b600061124a838361122f565b60208301905092915050565b6000602082019050919050565b600061126e826111d1565b61127881856111dc565b9350611283836111ed565b8060005b838110156112b457815161129b888261123e565b97506112a683611256565b925050600181019050611287565b5085935050505092915050565b600060208201905081810360008301526112db8184611263565b905092915050565b6000819050919050565b6112f6816112e3565b82525050565b600060208201905061131160008301846112ed565b92915050565b600081519050919050565b600082825260208201905092915050565b6000819050602082019050919050565b600081519050919050565b600082825260208201905092915050565b60005b8381101561137d578082015181840152602081019050611362565b60008484015250505050565b6000601f19601f8301169050919050565b60006113a582611343565b6113af818561134e565b93506113bf81856020860161135f565b6113c881611389565b840191505092915050565b6113dc816112e3565b82525050565b60008115159050919050565b6113f7816113e2565b82525050565b6000606083016000830151848203600086015261141a828261139a565b915050602083015161142f60208601826113d3565b50604083015161144260408601826113ee565b508091505092915050565b600061145983836113fd565b905092915050565b6000602082019050919050565b600061147982611317565b6114838185611322565b93508360208202850161149585611333565b8060005b858110156114d157848403895281516114b2858261144d565b94506114bd83611461565b925060208a01995050600181019050611499565b50829750879550505050505092915050565b600060208201905081810360008301526114fd818461146e565b905092915050565b6000604051905090565b600080fd5b600080fd5b611522816112e3565b811461152d57600080fd5b50565b60008135905061153f81611519565b92915050565b60006020828403121561155b5761155a61150f565b5b600061156984828501611530565b91505092915050565b61157b8161121d565b82525050565b60006020820190506115966000830184611572565b92915050565b600080fd5b600080fd5b7f4e487b7100000000000000000000000000000000000000000000000000000000600052604160045260246000fd5b6115de82611389565b810181811067ffffffffffffffff821117156115fd576115fc6115a6565b5b80604052505050565b6000611610611505565b905061161c82826115d5565b919050565b600067ffffffffffffffff82111561163c5761163b6115a6565b5b61164582611389565b9050602081019050919050565b82818337600083830152505050565b600061167461166f84611621565b611606565b9050828152602081018484840111156116905761168f6115a1565b5b61169b848285611652565b509392505050565b600082601f8301126116b8576116b761159c565b5b81356116c8848260208601611661565b91505092915050565b6000602082840312156116e7576116e661150f565b5b600082013567ffffffffffffffff81111561170557611704611514565b5b611711848285016116a3565b91505092915050565b600082825260208201905092915050565b600061173682611343565b611740818561171a565b935061175081856020860161135f565b61175981611389565b840191505092915050565b6000602082019050818103600083015261177e818461172b565b905092915050565b61178f816113e2565b82525050565b60006020820190506117aa6000830184611786565b92915050565b6000806000606084860312156117c9576117c861150f565b5b600084013567ffffffffffffffff8111156117e7576117e6611514565b5b6117f3868287016116a3565b935050602061180486828701611530565b925050604061181586828701611530565b9150509250925092565b60006060820190508181036000830152611839818661172b565b905061184860208301856112ed565b6118556040830184611786565b949350505050565b600060408201905061187260008301856112ed565b61187f60208301846112ed565b9392505050565b600081519050919050565b600082825260208201905092915050565b6000819050602082019050919050565b6040820160008201516118c860008501826113d3565b5060208201516118db60208501826113d3565b50505050565b60006118ed83836118b2565b60408301905092915050565b6000602082019050919050565b600061191182611886565b61191b8185611891565b9350611926836118a2565b8060005b8381101561195757815161193e88826118e1565b9750611949836118f9565b92505060018101905061192a565b5085935050505092915050565b6000602082019050818103600083015261197e8184611906565b905092915050565b6000806040838503121561199d5761199c61150f565b5b60006119ab85828601611530565b92505060206119bc85828601611530565b9150509250929050565b6119cf8161121d565b81146119da57600080fd5b50565b6000813590506119ec816119c6565b92915050565b600060208284031215611a0857611a0761150f565b5b6000611a16848285016119dd565b91505092915050565b7f4e487b7100000000000000000000000000000000000000000000000000000000600052602260045260246000fd5b60006002820490506001821680611a6657607f821691505b602082108103611a7957611a78611a1f565b5b50919050565b7f4e487b7100000000000000000000000000000000000000000000000000000000600052603260045260246000fd5b7f4e487b7100000000000000000000000000000000000000000000000000000000600052601160045260246000fd5b6000611ae8826112e3565b91507fffffffffffffffffffffffffffffffffffffffffffffffffffffffffffffffff8203611b1a57611b19611aae565b5b600182019050919050565b7f546869732066756e6374696f6e206973207265737472696374656420746f206560008201527f6c656374696f6e206d6f64657261746f72732e00000000000000000000000000602082015250565b6000611b8160338361171a565b9150611b8c82611b25565b604082019050919050565b60006020820190508181036000830152611bb081611b74565b9050919050565b7f4669727374207374616765206d7573742062652063616c6c656420666972737460008201527f2e00000000000000000000000000000000000000000000000000000000000000602082015250565b6000611c1360218361171a565b9150611c1e82611bb7565b604082019050919050565b60006020820190508181036000830152611c4281611c06565b9050919050565b7f5365636f6e642073746167652068617320616c7265616479206265656e20636160008201527f6c6c65642e000000000000000000000000000000000000000000000000000000602082015250565b6000611ca560258361171a565b9150611cb082611c49565b604082019050919050565b60006020820190508181036000830152611cd481611c98565b9050919050565b6000611ce6826112e3565b9150611cf1836112e3565b9250828201905080821115611d0957611d08611aae565b5b92915050565b7f456c656374696f6e206973206f7665722e000000000000000000000000000000600082015250565b6000611d4560118361171a565b9150611d5082611d0f565b602082019050919050565b60006020820190508181036000830152611d7481611d38565b9050919050565b60008190508160005260206000209050919050565b60006020601f8301049050919050565b600082821b905092915050565b600060088302611ddd7fffffffffffffffffffffffffffffffffffffffffffffffffffffffffffffffff82611da0565b611de78683611da0565b95508019841693508086168417925050509392505050565b6000819050919050565b6000611e24611e1f611e1a846112e3565b611dff565b6112e3565b9050919050565b6000819050919050565b611e3e83611e09565b611e52611e4a82611e2b565b848454611dad565b825550505050565b600090565b611e67611e5a565b611e72818484611e35565b505050565b5b81811015611e9657611e8b600082611e5f565b600181019050611e78565b5050565b601f821115611edb57611eac81611d7b565b611eb584611d90565b81016020851015611ec4578190505b611ed8611ed085611d90565b830182611e77565b50505b505050565b600082821c905092915050565b6000611efe60001984600802611ee0565b1980831691505092915050565b6000611f178383611eed565b9150826002028217905092915050565b611f3082611343565b67ffffffffffffffff811115611f4957611f486115a6565b5b611f538254611a4e565b611f5e828285611e9a565b600060209050601f831160018114611f915760008415611f7f578287015190505b611f898582611f0b565b865550611ff1565b601f198416611f9f86611d7b565b60005b82811015611fc757848901518255600182019150602085019450602081019050611fa2565b86831015611fe45784890151611fe0601f891682611eed565b8355505b6001600288020188555050505b505050505050565b7f596f75206861766520616c726561647920766f7465642e000000000000000000600082015250565b600061202f60178361171a565b915061203a82611ff9565b602082019050919050565b6000602082019050818103600083015261205e81612022565b9050919050565b7f456c656374696f6e2069732063757272656e746c7920696e6163746976652e00600082015250565b600061209b601f8361171a565b91506120a682612065565b602082019050919050565b600060208201905081810360008301526120ca8161208e565b9050919050565b7f496e76616c696420766f74652e00000000000000000000000000000000000000600082015250565b6000612107600d8361171a565b9150612112826120d1565b602082019050919050565b60006020820190508181036000830152612136816120fa565b905091905056fea26469706673582212206f2f5dc795496cb165459fd9d8d19b1b06f24e87e9e512f78248f3752d183bc564736f6c63430008110033",
  "linkReferences": {},
  "deployedLinkReferences": {}
}